{
  "_format": "hh3-artifact-1",
  "contractName": "CertificateRegistry",
  "sourceName": "contracts/CertificateRegistry.sol",
  "abi": [
    {
      "inputs": [],
      "stateMutability": "nonpayable",
      "type": "constructor"
    },
    {
      "anonymous": false,
      "inputs": [
        {
          "indexed": true,
          "internalType": "bytes32",
          "name": "hash",
          "type": "bytes32"
        },
        {
          "indexed": true,
          "internalType": "address",
          "name": "issuer",
          "type": "address"
        },
        {
          "indexed": false,
          "internalType": "string",
          "name": "metadataURI",
          "type": "string"
        }
      ],
      "name": "Issued",
      "type": "event"
    },
    {
      "anonymous": false,
      "inputs": [
        {
          "indexed": true,
          "internalType": "address",
          "name": "issuer",
          "type": "address"
        },
        {
          "indexed": false,
          "internalType": "bool",
          "name": "allowed",
          "type": "bool"
        }
      ],
      "name": "IssuerSet",
      "type": "event"
    },
    {
      "anonymous": false,
      "inputs": [
        {
          "indexed": true,
          "internalType": "address",
          "name": "newOwner",
          "type": "address"
        }
      ],
      "name": "OwnerChanged",
      "type": "event"
    },
    {
      "anonymous": false,
      "inputs": [
        {
          "indexed": true,
          "internalType": "bytes32",
          "name": "hash",
          "type": "bytes32"
        },
        {
          "indexed": true,
          "internalType": "address",
          "name": "issuer",
          "type": "address"
        }
      ],
      "name": "Revoked",
      "type": "event"
    },
    {
      "inputs": [
        {
          "internalType": "bytes32",
          "name": "hash",
          "type": "bytes32"
        }
      ],
      "name": "get",
      "outputs": [
        {
          "components": [
            {
              "internalType": "address",
              "name": "issuer",
              "type": "address"
            },
            {
              "internalType": "string",
              "name": "metadataURI",
              "type": "string"
            },
            {
              "internalType": "enum CertificateRegistry.Status",
              "name": "status",
              "type": "uint8"
            },
            {
              "internalType": "uint64",
              "name": "issuedAt",
              "type": "uint64"
            }
          ],
          "internalType": "struct CertificateRegistry.Record",
          "name": "",
          "type": "tuple"
        }
      ],
      "stateMutability": "view",
      "type": "function"
    },
    {
      "inputs": [
        {
          "internalType": "address",
          "name": "",
          "type": "address"
        }
      ],
      "name": "isIssuer",
      "outputs": [
        {
          "internalType": "bool",
          "name": "",
          "type": "bool"
        }
      ],
      "stateMutability": "view",
      "type": "function"
    },
    {
      "inputs": [
        {
          "internalType": "bytes32",
          "name": "hash",
          "type": "bytes32"
        },
        {
          "internalType": "string",
          "name": "metadataURI",
          "type": "string"
        }
      ],
      "name": "issue",
      "outputs": [],
      "stateMutability": "nonpayable",
      "type": "function"
    },
    {
      "inputs": [],
      "name": "owner",
      "outputs": [
        {
          "internalType": "address",
          "name": "",
          "type": "address"
        }
      ],
      "stateMutability": "view",
      "type": "function"
    },
    {
      "inputs": [
        {
          "internalType": "bytes32",
          "name": "",
          "type": "bytes32"
        }
      ],
      "name": "records",
      "outputs": [
        {
          "internalType": "address",
          "name": "issuer",
          "type": "address"
        },
        {
          "internalType": "string",
          "name": "metadataURI",
          "type": "string"
        },
        {
          "internalType": "enum CertificateRegistry.Status",
          "name": "status",
          "type": "uint8"
        },
        {
          "internalType": "uint64",
          "name": "issuedAt",
          "type": "uint64"
        }
      ],
      "stateMutability": "view",
      "type": "function"
    },
    {
      "inputs": [
        {
          "internalType": "bytes32",
          "name": "hash",
          "type": "bytes32"
        }
      ],
      "name": "revoke",
      "outputs": [],
      "stateMutability": "nonpayable",
      "type": "function"
    },
    {
      "inputs": [
        {
          "internalType": "address",
          "name": "who",
          "type": "address"
        },
        {
          "internalType": "bool",
          "name": "allowed",
          "type": "bool"
        }
      ],
      "name": "setIssuer",
      "outputs": [],
      "stateMutability": "nonpayable",
      "type": "function"
    },
    {
      "inputs": [
        {
          "internalType": "address",
          "name": "newOwner",
          "type": "address"
        }
      ],
      "name": "setOwner",
      "outputs": [],
      "stateMutability": "nonpayable",
      "type": "function"
    }
  ],
  "bytecode": "0x6080604052348015600e575f5ffd5b503360025f6101000a81548173ffffffffffffffffffffffffffffffffffffffff021916908373ffffffffffffffffffffffffffffffffffffffff16021790555060025f9054906101000a900473ffffffffffffffffffffffffffffffffffffffff1673ffffffffffffffffffffffffffffffffffffffff167fa2ea9883a321a3e97b8266c2b078bfeec6d50c711ed71f874a90d500ae2eaf3660405160405180910390a26116ab806100c05f395ff3fe608060405234801561000f575f5ffd5b5060043610610086575f3560e01c80638da5cb5b116100595780638da5cb5b146101255780638eaa6ac014610143578063b75c7dc614610173578063ba091ec21461018f57610086565b806301e647251461008a57806313af4035146100bd578063495289be146100d9578063877b9a67146100f5575b5f5ffd5b6100a4600480360381019061009f9190610c32565b6101ab565b6040516100b49493929190610da1565b60405180910390f35b6100d760048036038101906100d29190610e15565b61029b565b005b6100f360048036038101906100ee9190610e75565b61041e565b005b61010f600480360381019061010a9190610e15565b610553565b60405161011c9190610ec2565b60405180910390f35b61012d610570565b60405161013a9190610edb565b60405180910390f35b61015d60048036038101906101589190610c32565b610595565b60405161016a9190610fc9565b60405180910390f35b61018d60048036038101906101889190610c32565b61070f565b005b6101a960048036038101906101a4919061104a565b610896565b005b5f602052805f5260405f205f91509050805f015f9054906101000a900473ffffffffffffffffffffffffffffffffffffffff16908060010180546101ee906110d4565b80601f016020809104026020016040519081016040528092919081815260200182805461021a906110d4565b80156102655780601f1061023c57610100808354040283529160200191610265565b820191905f5260205f20905b81548152906001019060200180831161024857829003601f168201915b505050505090806002015f9054906101000a900460ff16908060020160019054906101000a900467ffffffffffffffff16905084565b60025f9054906101000a900473ffffffffffffffffffffffffffffffffffffffff1673ffffffffffffffffffffffffffffffffffffffff163373ffffffffffffffffffffffffffffffffffffffff161461032a576040517f08c379a00000000000000000000000000000000000000000000000000000000081526004016103219061114e565b60405180910390fd5b5f73ffffffffffffffffffffffffffffffffffffffff168173ffffffffffffffffffffffffffffffffffffffff1603610398576040517f08c379a000000000000000000000000000000000000000000000000000000000815260040161038f906111b6565b60405180910390fd5b8060025f6101000a81548173ffffffffffffffffffffffffffffffffffffffff021916908373ffffffffffffffffffffffffffffffffffffffff1602179055508073ffffffffffffffffffffffffffffffffffffffff167fa2ea9883a321a3e97b8266c2b078bfeec6d50c711ed71f874a90d500ae2eaf3660405160405180910390a250565b60025f9054906101000a900473ffffffffffffffffffffffffffffffffffffffff1673ffffffffffffffffffffffffffffffffffffffff163373ffffffffffffffffffffffffffffffffffffffff16146104ad576040517f08c379a00000000000000000000000000000000000000000000000000000000081526004016104a49061114e565b60405180910390fd5b8060015f8473ffffffffffffffffffffffffffffffffffffffff1673ffffffffffffffffffffffffffffffffffffffff1681526020019081526020015f205f6101000a81548160ff0219169083151502179055508173ffffffffffffffffffffffffffffffffffffffff167fc6aeabbc4fc4eb208b2b4cec7249245167cb6191c47e2e6f82a3cd59a89ce7e1826040516105479190610ec2565b60405180910390a25050565b6001602052805f5260405f205f915054906101000a900460ff1681565b60025f9054906101000a900473ffffffffffffffffffffffffffffffffffffffff1681565b61059d610ba0565b5f5f8381526020019081526020015f206040518060800160405290815f82015f9054906101000a900473ffffffffffffffffffffffffffffffffffffffff1673ffffffffffffffffffffffffffffffffffffffff1673ffffffffffffffffffffffffffffffffffffffff16815260200160018201805461061c906110d4565b80601f0160208091040260200160405190810160405280929190818152602001828054610648906110d4565b80156106935780601f1061066a57610100808354040283529160200191610693565b820191905f5260205f20905b81548152906001019060200180831161067657829003601f168201915b50505050508152602001600282015f9054906101000a900460ff1660028111156106c0576106bf610d0c565b5b60028111156106d2576106d1610d0c565b5b81526020016002820160019054906101000a900467ffffffffffffffff1667ffffffffffffffff1667ffffffffffffffff16815250509050919050565b60015f3373ffffffffffffffffffffffffffffffffffffffff1673ffffffffffffffffffffffffffffffffffffffff1681526020019081526020015f205f9054906101000a900460ff16610798576040517f08c379a000000000000000000000000000000000000000000000000000000000815260040161078f9061121e565b60405180910390fd5b5f5f5f8381526020019081526020015f209050600160028111156107bf576107be610d0c565b5b816002015f9054906101000a900460ff1660028111156107e2576107e1610d0c565b5b14610822576040517f08c379a000000000000000000000000000000000000000000000000000000000815260040161081990611286565b60405180910390fd5b6002816002015f6101000a81548160ff0219169083600281111561084957610848610d0c565b5b02179055503373ffffffffffffffffffffffffffffffffffffffff16827f5bc2baf870c5baf189838b5e0b0e3b04a3263e2df5d305d1c15f3e6022f5dc4560405160405180910390a35050565b60015f3373ffffffffffffffffffffffffffffffffffffffff1673ffffffffffffffffffffffffffffffffffffffff1681526020019081526020015f205f9054906101000a900460ff1661091f576040517f08c379a00000000000000000000000000000000000000000000000000000000081526004016109169061121e565b60405180910390fd5b5f5f1b8303610963576040517f08c379a000000000000000000000000000000000000000000000000000000000815260040161095a906112ee565b60405180910390fd5b5f600281111561097657610975610d0c565b5b5f5f8581526020019081526020015f206002015f9054906101000a900460ff1660028111156109a8576109a7610d0c565b5b146109e8576040517f08c379a00000000000000000000000000000000000000000000000000000000081526004016109df90611356565b60405180910390fd5b60405180608001604052803373ffffffffffffffffffffffffffffffffffffffff16815260200183838080601f0160208091040260200160405190810160405280939291908181526020018383808284375f81840152601f19601f82011690508083019250505050505050815260200160016002811115610a6c57610a6b610d0c565b5b81526020014267ffffffffffffffff168152505f5f8581526020019081526020015f205f820151815f015f6101000a81548173ffffffffffffffffffffffffffffffffffffffff021916908373ffffffffffffffffffffffffffffffffffffffff1602179055506020820151816001019081610ae8919061154a565b506040820151816002015f6101000a81548160ff02191690836002811115610b1357610b12610d0c565b5b021790555060608201518160020160016101000a81548167ffffffffffffffff021916908367ffffffffffffffff1602179055509050503373ffffffffffffffffffffffffffffffffffffffff16837f85314427a82a91de4531b1e4e00da583c9c5b6e3b9bc58093fe72f407b8b92828484604051610b93929190611653565b60405180910390a3505050565b60405180608001604052805f73ffffffffffffffffffffffffffffffffffffffff168152602001606081526020015f6002811115610be157610be0610d0c565b5b81526020015f67ffffffffffffffff1681525090565b5f5ffd5b5f5ffd5b5f819050919050565b610c1181610bff565b8114610c1b575f5ffd5b50565b5f81359050610c2c81610c08565b92915050565b5f60208284031215610c4757610c46610bf7565b5b5f610c5484828501610c1e565b91505092915050565b5f73ffffffffffffffffffffffffffffffffffffffff82169050919050565b5f610c8682610c5d565b9050919050565b610c9681610c7c565b82525050565b5f81519050919050565b5f82825260208201905092915050565b8281835e5f83830152505050565b5f601f19601f8301169050919050565b5f610cde82610c9c565b610ce88185610ca6565b9350610cf8818560208601610cb6565b610d0181610cc4565b840191505092915050565b7f4e487b71000000000000000000000000000000000000000000000000000000005f52602160045260245ffd5b60038110610d4a57610d49610d0c565b5b50565b5f819050610d5a82610d39565b919050565b5f610d6982610d4d565b9050919050565b610d7981610d5f565b82525050565b5f67ffffffffffffffff82169050919050565b610d9b81610d7f565b82525050565b5f608082019050610db45f830187610c8d565b8181036020830152610dc68186610cd4565b9050610dd56040830185610d70565b610de26060830184610d92565b95945050505050565b610df481610c7c565b8114610dfe575f5ffd5b50565b5f81359050610e0f81610deb565b92915050565b5f60208284031215610e2a57610e29610bf7565b5b5f610e3784828501610e01565b91505092915050565b5f8115159050919050565b610e5481610e40565b8114610e5e575f5ffd5b50565b5f81359050610e6f81610e4b565b92915050565b5f5f60408385031215610e8b57610e8a610bf7565b5b5f610e9885828601610e01565b9250506020610ea985828601610e61565b9150509250929050565b610ebc81610e40565b82525050565b5f602082019050610ed55f830184610eb3565b92915050565b5f602082019050610eee5f830184610c8d565b92915050565b610efd81610c7c565b82525050565b5f82825260208201905092915050565b5f610f1d82610c9c565b610f278185610f03565b9350610f37818560208601610cb6565b610f4081610cc4565b840191505092915050565b610f5481610d5f565b82525050565b610f6381610d7f565b82525050565b5f608083015f830151610f7e5f860182610ef4565b5060208301518482036020860152610f968282610f13565b9150506040830151610fab6040860182610f4b565b506060830151610fbe6060860182610f5a565b508091505092915050565b5f6020820190508181035f830152610fe18184610f69565b905092915050565b5f5ffd5b5f5ffd5b5f5ffd5b5f5f83601f84011261100a57611009610fe9565b5b8235905067ffffffffffffffff81111561102757611026610fed565b5b60208301915083600182028301111561104357611042610ff1565b5b9250929050565b5f5f5f6040848603121561106157611060610bf7565b5b5f61106e86828701610c1e565b935050602084013567ffffffffffffffff81111561108f5761108e610bfb565b5b61109b86828701610ff5565b92509250509250925092565b7f4e487b71000000000000000000000000000000000000000000000000000000005f52602260045260245ffd5b5f60028204905060018216806110eb57607f821691505b6020821081036110fe576110fd6110a7565b5b50919050565b7f6e6f74206f776e657200000000000000000000000000000000000000000000005f82015250565b5f611138600983610ca6565b915061114382611104565b602082019050919050565b5f6020820190508181035f8301526111658161112c565b9050919050565b7f7a65726f000000000000000000000000000000000000000000000000000000005f82015250565b5f6111a0600483610ca6565b91506111ab8261116c565b602082019050919050565b5f6020820190508181035f8301526111cd81611194565b9050919050565b7f6e6f7420697373756572000000000000000000000000000000000000000000005f82015250565b5f611208600a83610ca6565b9150611213826111d4565b602082019050919050565b5f6020820190508181035f830152611235816111fc565b9050919050565b7f6e6f742076616c696400000000000000000000000000000000000000000000005f82015250565b5f611270600983610ca6565b915061127b8261123c565b602082019050919050565b5f6020820190508181035f83015261129d81611264565b9050919050565b7f62616420686173680000000000000000000000000000000000000000000000005f82015250565b5f6112d8600883610ca6565b91506112e3826112a4565b602082019050919050565b5f6020820190508181035f830152611305816112cc565b9050919050565b7f65786973747300000000000000000000000000000000000000000000000000005f82015250565b5f611340600683610ca6565b915061134b8261130c565b602082019050919050565b5f6020820190508181035f83015261136d81611334565b9050919050565b7f4e487b71000000000000000000000000000000000000000000000000000000005f52604160045260245ffd5b5f819050815f5260205f209050919050565b5f6020601f8301049050919050565b5f82821b905092915050565b5f600883026113fd7fffffffffffffffffffffffffffffffffffffffffffffffffffffffffffffffff826113c2565b61140786836113c2565b95508019841693508086168417925050509392505050565b5f819050919050565b5f819050919050565b5f61144b6114466114418461141f565b611428565b61141f565b9050919050565b5f819050919050565b61146483611431565b61147861147082611452565b8484546113ce565b825550505050565b5f5f905090565b61148f611480565b61149a81848461145b565b505050565b5b818110156114bd576114b25f82611487565b6001810190506114a0565b5050565b601f821115611502576114d3816113a1565b6114dc846113b3565b810160208510156114eb578190505b6114ff6114f7856113b3565b83018261149f565b50505b505050565b5f82821c905092915050565b5f6115225f1984600802611507565b1980831691505092915050565b5f61153a8383611513565b9150826002028217905092915050565b61155382610c9c565b67ffffffffffffffff81111561156c5761156b611374565b5b61157682546110d4565b6115818282856114c1565b5f60209050601f8311600181146115b2575f84156115a0578287015190505b6115aa858261152f565b865550611611565b601f1984166115c0866113a1565b5f5b828110156115e7578489015182556001820191506020850194506020810190506115c2565b868310156116045784890151611600601f891682611513565b8355505b6001600288020188555050505b505050505050565b828183375f83830152505050565b5f6116328385610ca6565b935061163f838584611619565b61164883610cc4565b840190509392505050565b5f6020820190508181035f83015261166c818486611627565b9050939250505056fea2646970667358221220a5007991f3783fa9072d85e35ab88663d4b82e616f057d40bbf7f32f083ce89064736f6c634300081c0033",
  "linkReferences": {},
  "deployedLinkReferences": {},
  "immutableReferences": {},
  "inputSourceName": "project/contracts/CertificateRegistry.sol",
  "buildInfoId": "solc-0_8_28-bcc6f3241b19a8f5802210a619c60c582b667d35"
}